{
  "contracts/Coinflip.sol": {
    "Coinflip": {
      "abi": [
        {
          "inputs": [],
          "stateMutability": "nonpayable",
          "type": "constructor"
        },
        {
          "stateMutability": "payable",
          "type": "fallback"
        },
        {
          "inputs": [],
          "name": "i_owner",
          "outputs": [
            {
              "internalType": "address",
              "name": "",
              "type": "address"
            }
          ],
          "stateMutability": "view",
          "type": "function"
        },
        {
          "inputs": [
            {
              "internalType": "uint256",
              "name": "guess",
              "type": "uint256"
            }
          ],
          "name": "play",
          "outputs": [
            {
              "internalType": "uint256",
              "name": "",
              "type": "uint256"
            }
          ],
          "stateMutability": "payable",
          "type": "function"
        },
        {
          "inputs": [],
          "name": "withdraw",
          "outputs": [],
          "stateMutability": "payable",
          "type": "function"
        },
        {
          "stateMutability": "payable",
          "type": "receive"
        }
      ],
      "evm": {
        "bytecode": {
          "linkReferences": {},
          "object": "60a060405234801561001057600080fd5b503373ffffffffffffffffffffffffffffffffffffffff1660808173ffffffffffffffffffffffffffffffffffffffff16815250506080516107a461006d6000396000818160a801528181610138015261034c01526107a46000f3fe6080604052600436106100385760003560e01c80633ccfd60b146100415780636898f82b1461004b578063dba6335f1461007b5761003f565b3661003f57005b005b6100496100a6565b005b610065600480360381019061006091906103a9565b610203565b60405161007291906103e5565b60405180910390f35b34801561008757600080fd5b5061009061034a565b60405161009d9190610441565b60405180910390f35b7f000000000000000000000000000000000000000000000000000000000000000073ffffffffffffffffffffffffffffffffffffffff163373ffffffffffffffffffffffffffffffffffffffff1614610134576040517f08c379a000000000000000000000000000000000000000000000000000000000815260040161012b906104b9565b60405180910390fd5b60007f000000000000000000000000000000000000000000000000000000000000000073ffffffffffffffffffffffffffffffffffffffff164760405161017a9061050a565b60006040518083038185875af1925050503d80600081146101b7576040519150601f19603f3d011682016040523d82523d6000602084013e6101bc565b606091505b5050905080610200576040517f08c379a00000000000000000000000000000000000000000000000000000000081526004016101f79061056b565b60405180910390fd5b50565b600047600261021291906105ba565b3410610253576040517f08c379a000000000000000000000000000000000000000000000000000000000815260040161024a90610648565b60405180910390fd5b600033428260405160200161026a939291906106d1565b6040516020818303038152906040528051906020012060001c9050600a81610292919061073d565b90506002816102a1919061073d565b90508083036103395760003373ffffffffffffffffffffffffffffffffffffffff166002346102d091906105ba565b6040516102dc9061050a565b60006040518083038185875af1925050503d8060008114610319576040519150601f19603f3d011682016040523d82523d6000602084013e61031e565b606091505b50509050801561033357600192505050610345565b50610343565b6000915050610345565b505b919050565b7f000000000000000000000000000000000000000000000000000000000000000081565b600080fd5b6000819050919050565b61038681610373565b811461039157600080fd5b50565b6000813590506103a38161037d565b92915050565b6000602082840312156103bf576103be61036e565b5b60006103cd84828501610394565b91505092915050565b6103df81610373565b82525050565b60006020820190506103fa60008301846103d6565b92915050565b600073ffffffffffffffffffffffffffffffffffffffff82169050919050565b600061042b82610400565b9050919050565b61043b81610420565b82525050565b60006020820190506104566000830184610432565b92915050565b600082825260208201905092915050565b7f4f6e6c792061646d696e2063616e207769746864726177000000000000000000600082015250565b60006104a360178361045c565b91506104ae8261046d565b602082019050919050565b600060208201905081810360008301526104d281610496565b9050919050565b600081905092915050565b50565b60006104f46000836104d9565b91506104ff826104e4565b600082019050919050565b6000610515826104e7565b9150819050919050565b7f43616c6c206661696c6564000000000000000000000000000000000000000000600082015250565b6000610555600b8361045c565b91506105608261051f565b602082019050919050565b6000602082019050818103600083015261058481610548565b9050919050565b7f4e487b7100000000000000000000000000000000000000000000000000000000600052601160045260246000fd5b60006105c582610373565b91506105d083610373565b92508282026105de81610373565b915082820484148315176105f5576105f461058b565b5b5092915050565b7f506c65617365206265742061206c6f7765722076616c75650000000000000000600082015250565b600061063260188361045c565b915061063d826105fc565b602082019050919050565b6000602082019050818103600083015261066181610625565b9050919050565b60008160601b9050919050565b600061068082610668565b9050919050565b600061069282610675565b9050919050565b6106aa6106a582610420565b610687565b82525050565b6000819050919050565b6106cb6106c682610373565b6106b0565b82525050565b60006106dd8286610699565b6014820191506106ed82856106ba565b6020820191506106fd82846106ba565b602082019150819050949350505050565b7f4e487b7100000000000000000000000000000000000000000000000000000000600052601260045260246000fd5b600061074882610373565b915061075383610373565b9250826107635761076261070e565b5b82820690509291505056fea26469706673582212202e89f6871cd5abbb698325f6a955dacda8d294eb9662078f53ce9f567772e9c864736f6c63430008180033",
          "opcodes": "PUSH1 0xA0 PUSH1 0x40 MSTORE CALLVALUE DUP1 ISZERO PUSH2 0x10 JUMPI PUSH1 0x0 DUP1 REVERT JUMPDEST POP CALLER PUSH20 0xFFFFFFFFFFFFFFFFFFFFFFFFFFFFFFFFFFFFFFFF AND PUSH1 0x80 DUP2 PUSH20 0xFFFFFFFFFFFFFFFFFFFFFFFFFFFFFFFFFFFFFFFF AND DUP2 MSTORE POP POP PUSH1 0x80 MLOAD PUSH2 0x7A4 PUSH2 0x6D PUSH1 0x0 CODECOPY PUSH1 0x0 DUP2 DUP2 PUSH1 0xA8 ADD MSTORE DUP2 DUP2 PUSH2 0x138 ADD MSTORE PUSH2 0x34C ADD MSTORE PUSH2 0x7A4 PUSH1 0x0 RETURN INVALID PUSH1 0x80 PUSH1 0x40 MSTORE PUSH1 0x4 CALLDATASIZE LT PUSH2 0x38 JUMPI PUSH1 0x0 CALLDATALOAD PUSH1 0xE0 SHR DUP1 PUSH4 0x3CCFD60B EQ PUSH2 0x41 JUMPI DUP1 PUSH4 0x6898F82B EQ PUSH2 0x4B JUMPI DUP1 PUSH4 0xDBA6335F EQ PUSH2 0x7B JUMPI PUSH2 0x3F JUMP JUMPDEST CALLDATASIZE PUSH2 0x3F JUMPI STOP JUMPDEST STOP JUMPDEST PUSH2 0x49 PUSH2 0xA6 JUMP JUMPDEST STOP JUMPDEST PUSH2 0x65 PUSH1 0x4 DUP1 CALLDATASIZE SUB DUP2 ADD SWAP1 PUSH2 0x60 SWAP2 SWAP1 PUSH2 0x3A9 JUMP JUMPDEST PUSH2 0x203 JUMP JUMPDEST PUSH1 0x40 MLOAD PUSH2 0x72 SWAP2 SWAP1 PUSH2 0x3E5 JUMP JUMPDEST PUSH1 0x40 MLOAD DUP1 SWAP2 SUB SWAP1 RETURN JUMPDEST CALLVALUE DUP1 ISZERO PUSH2 0x87 JUMPI PUSH1 0x0 DUP1 REVERT JUMPDEST POP PUSH2 0x90 PUSH2 0x34A JUMP JUMPDEST PUSH1 0x40 MLOAD PUSH2 0x9D SWAP2 SWAP1 PUSH2 0x441 JUMP JUMPDEST PUSH1 0x40 MLOAD DUP1 SWAP2 SUB SWAP1 RETURN JUMPDEST PUSH32 0x0 PUSH20 0xFFFFFFFFFFFFFFFFFFFFFFFFFFFFFFFFFFFFFFFF AND CALLER PUSH20 0xFFFFFFFFFFFFFFFFFFFFFFFFFFFFFFFFFFFFFFFF AND EQ PUSH2 0x134 JUMPI PUSH1 0x40 MLOAD PUSH32 0x8C379A000000000000000000000000000000000000000000000000000000000 DUP2 MSTORE PUSH1 0x4 ADD PUSH2 0x12B SWAP1 PUSH2 0x4B9 JUMP JUMPDEST PUSH1 0x40 MLOAD DUP1 SWAP2 SUB SWAP1 REVERT JUMPDEST PUSH1 0x0 PUSH32 0x0 PUSH20 0xFFFFFFFFFFFFFFFFFFFFFFFFFFFFFFFFFFFFFFFF AND SELFBALANCE PUSH1 0x40 MLOAD PUSH2 0x17A SWAP1 PUSH2 0x50A JUMP JUMPDEST PUSH1 0x0 PUSH1 0x40 MLOAD DUP1 DUP4 SUB DUP2 DUP6 DUP8 GAS CALL SWAP3 POP POP POP RETURNDATASIZE DUP1 PUSH1 0x0 DUP2 EQ PUSH2 0x1B7 JUMPI PUSH1 0x40 MLOAD SWAP2 POP PUSH1 0x1F NOT PUSH1 0x3F RETURNDATASIZE ADD AND DUP3 ADD PUSH1 0x40 MSTORE RETURNDATASIZE DUP3 MSTORE RETURNDATASIZE PUSH1 0x0 PUSH1 0x20 DUP5 ADD RETURNDATACOPY PUSH2 0x1BC JUMP JUMPDEST PUSH1 0x60 SWAP2 POP JUMPDEST POP POP SWAP1 POP DUP1 PUSH2 0x200 JUMPI PUSH1 0x40 MLOAD PUSH32 0x8C379A000000000000000000000000000000000000000000000000000000000 DUP2 MSTORE PUSH1 0x4 ADD PUSH2 0x1F7 SWAP1 PUSH2 0x56B JUMP JUMPDEST PUSH1 0x40 MLOAD DUP1 SWAP2 SUB SWAP1 REVERT JUMPDEST POP JUMP JUMPDEST PUSH1 0x0 SELFBALANCE PUSH1 0x2 PUSH2 0x212 SWAP2 SWAP1 PUSH2 0x5BA JUMP JUMPDEST CALLVALUE LT PUSH2 0x253 JUMPI PUSH1 0x40 MLOAD PUSH32 0x8C379A000000000000000000000000000000000000000000000000000000000 DUP2 MSTORE PUSH1 0x4 ADD PUSH2 0x24A SWAP1 PUSH2 0x648 JUMP JUMPDEST PUSH1 0x40 MLOAD DUP1 SWAP2 SUB SWAP1 REVERT JUMPDEST PUSH1 0x0 CALLER TIMESTAMP DUP3 PUSH1 0x40 MLOAD PUSH1 0x20 ADD PUSH2 0x26A SWAP4 SWAP3 SWAP2 SWAP1 PUSH2 0x6D1 JUMP JUMPDEST PUSH1 0x40 MLOAD PUSH1 0x20 DUP2 DUP4 SUB SUB DUP2 MSTORE SWAP1 PUSH1 0x40 MSTORE DUP1 MLOAD SWAP1 PUSH1 0x20 ADD KECCAK256 PUSH1 0x0 SHR SWAP1 POP PUSH1 0xA DUP2 PUSH2 0x292 SWAP2 SWAP1 PUSH2 0x73D JUMP JUMPDEST SWAP1 POP PUSH1 0x2 DUP2 PUSH2 0x2A1 SWAP2 SWAP1 PUSH2 0x73D JUMP JUMPDEST SWAP1 POP DUP1 DUP4 SUB PUSH2 0x339 JUMPI PUSH1 0x0 CALLER PUSH20 0xFFFFFFFFFFFFFFFFFFFFFFFFFFFFFFFFFFFFFFFF AND PUSH1 0x2 CALLVALUE PUSH2 0x2D0 SWAP2 SWAP1 PUSH2 0x5BA JUMP JUMPDEST PUSH1 0x40 MLOAD PUSH2 0x2DC SWAP1 PUSH2 0x50A JUMP JUMPDEST PUSH1 0x0 PUSH1 0x40 MLOAD DUP1 DUP4 SUB DUP2 DUP6 DUP8 GAS CALL SWAP3 POP POP POP RETURNDATASIZE DUP1 PUSH1 0x0 DUP2 EQ PUSH2 0x319 JUMPI PUSH1 0x40 MLOAD SWAP2 POP PUSH1 0x1F NOT PUSH1 0x3F RETURNDATASIZE ADD AND DUP3 ADD PUSH1 0x40 MSTORE RETURNDATASIZE DUP3 MSTORE RETURNDATASIZE PUSH1 0x0 PUSH1 0x20 DUP5 ADD RETURNDATACOPY PUSH2 0x31E JUMP JUMPDEST PUSH1 0x60 SWAP2 POP JUMPDEST POP POP SWAP1 POP DUP1 ISZERO PUSH2 0x333 JUMPI PUSH1 0x1 SWAP3 POP POP POP PUSH2 0x345 JUMP JUMPDEST POP PUSH2 0x343 JUMP JUMPDEST PUSH1 0x0 SWAP2 POP POP PUSH2 0x345 JUMP JUMPDEST POP JUMPDEST SWAP2 SWAP1 POP JUMP JUMPDEST PUSH32 0x0 DUP2 JUMP JUMPDEST PUSH1 0x0 DUP1 REVERT JUMPDEST PUSH1 0x0 DUP2 SWAP1 POP SWAP2 SWAP1 POP JUMP JUMPDEST PUSH2 0x386 DUP2 PUSH2 0x373 JUMP JUMPDEST DUP2 EQ PUSH2 0x391 JUMPI PUSH1 0x0 DUP1 REVERT JUMPDEST POP JUMP JUMPDEST PUSH1 0x0 DUP2 CALLDATALOAD SWAP1 POP PUSH2 0x3A3 DUP2 PUSH2 0x37D JUMP JUMPDEST SWAP3 SWAP2 POP POP JUMP JUMPDEST PUSH1 0x0 PUSH1 0x20 DUP3 DUP5 SUB SLT ISZERO PUSH2 0x3BF JUMPI PUSH2 0x3BE PUSH2 0x36E JUMP JUMPDEST JUMPDEST PUSH1 0x0 PUSH2 0x3CD DUP5 DUP3 DUP6 ADD PUSH2 0x394 JUMP JUMPDEST SWAP2 POP POP SWAP3 SWAP2 POP POP JUMP JUMPDEST PUSH2 0x3DF DUP2 PUSH2 0x373 JUMP JUMPDEST DUP3 MSTORE POP POP JUMP JUMPDEST PUSH1 0x0 PUSH1 0x20 DUP3 ADD SWAP1 POP PUSH2 0x3FA PUSH1 0x0 DUP4 ADD DUP5 PUSH2 0x3D6 JUMP JUMPDEST SWAP3 SWAP2 POP POP JUMP JUMPDEST PUSH1 0x0 PUSH20 0xFFFFFFFFFFFFFFFFFFFFFFFFFFFFFFFFFFFFFFFF DUP3 AND SWAP1 POP SWAP2 SWAP1 POP JUMP JUMPDEST PUSH1 0x0 PUSH2 0x42B DUP3 PUSH2 0x400 JUMP JUMPDEST SWAP1 POP SWAP2 SWAP1 POP JUMP JUMPDEST PUSH2 0x43B DUP2 PUSH2 0x420 JUMP JUMPDEST DUP3 MSTORE POP POP JUMP JUMPDEST PUSH1 0x0 PUSH1 0x20 DUP3 ADD SWAP1 POP PUSH2 0x456 PUSH1 0x0 DUP4 ADD DUP5 PUSH2 0x432 JUMP JUMPDEST SWAP3 SWAP2 POP POP JUMP JUMPDEST PUSH1 0x0 DUP3 DUP3 MSTORE PUSH1 0x20 DUP3 ADD SWAP1 POP SWAP3 SWAP2 POP POP JUMP JUMPDEST PUSH32 0x4F6E6C792061646D696E2063616E207769746864726177000000000000000000 PUSH1 0x0 DUP3 ADD MSTORE POP JUMP JUMPDEST PUSH1 0x0 PUSH2 0x4A3 PUSH1 0x17 DUP4 PUSH2 0x45C JUMP JUMPDEST SWAP2 POP PUSH2 0x4AE DUP3 PUSH2 0x46D JUMP JUMPDEST PUSH1 0x20 DUP3 ADD SWAP1 POP SWAP2 SWAP1 POP JUMP JUMPDEST PUSH1 0x0 PUSH1 0x20 DUP3 ADD SWAP1 POP DUP2 DUP2 SUB PUSH1 0x0 DUP4 ADD MSTORE PUSH2 0x4D2 DUP2 PUSH2 0x496 JUMP JUMPDEST SWAP1 POP SWAP2 SWAP1 POP JUMP JUMPDEST PUSH1 0x0 DUP2 SWAP1 POP SWAP3 SWAP2 POP POP JUMP JUMPDEST POP JUMP JUMPDEST PUSH1 0x0 PUSH2 0x4F4 PUSH1 0x0 DUP4 PUSH2 0x4D9 JUMP JUMPDEST SWAP2 POP PUSH2 0x4FF DUP3 PUSH2 0x4E4 JUMP JUMPDEST PUSH1 0x0 DUP3 ADD SWAP1 POP SWAP2 SWAP1 POP JUMP JUMPDEST PUSH1 0x0 PUSH2 0x515 DUP3 PUSH2 0x4E7 JUMP JUMPDEST SWAP2 POP DUP2 SWAP1 POP SWAP2 SWAP1 POP JUMP JUMPDEST PUSH32 0x43616C6C206661696C6564000000000000000000000000000000000000000000 PUSH1 0x0 DUP3 ADD MSTORE POP JUMP JUMPDEST PUSH1 0x0 PUSH2 0x555 PUSH1 0xB DUP4 PUSH2 0x45C JUMP JUMPDEST SWAP2 POP PUSH2 0x560 DUP3 PUSH2 0x51F JUMP JUMPDEST PUSH1 0x20 DUP3 ADD SWAP1 POP SWAP2 SWAP1 POP JUMP JUMPDEST PUSH1 0x0 PUSH1 0x20 DUP3 ADD SWAP1 POP DUP2 DUP2 SUB PUSH1 0x0 DUP4 ADD MSTORE PUSH2 0x584 DUP2 PUSH2 0x548 JUMP JUMPDEST SWAP1 POP SWAP2 SWAP1 POP JUMP JUMPDEST PUSH32 0x4E487B7100000000000000000000000000000000000000000000000000000000 PUSH1 0x0 MSTORE PUSH1 0x11 PUSH1 0x4 MSTORE PUSH1 0x24 PUSH1 0x0 REVERT JUMPDEST PUSH1 0x0 PUSH2 0x5C5 DUP3 PUSH2 0x373 JUMP JUMPDEST SWAP2 POP PUSH2 0x5D0 DUP4 PUSH2 0x373 JUMP JUMPDEST SWAP3 POP DUP3 DUP3 MUL PUSH2 0x5DE DUP2 PUSH2 0x373 JUMP JUMPDEST SWAP2 POP DUP3 DUP3 DIV DUP5 EQ DUP4 ISZERO OR PUSH2 0x5F5 JUMPI PUSH2 0x5F4 PUSH2 0x58B JUMP JUMPDEST JUMPDEST POP SWAP3 SWAP2 POP POP JUMP JUMPDEST PUSH32 0x506C65617365206265742061206C6F7765722076616C75650000000000000000 PUSH1 0x0 DUP3 ADD MSTORE POP JUMP JUMPDEST PUSH1 0x0 PUSH2 0x632 PUSH1 0x18 DUP4 PUSH2 0x45C JUMP JUMPDEST SWAP2 POP PUSH2 0x63D DUP3 PUSH2 0x5FC JUMP JUMPDEST PUSH1 0x20 DUP3 ADD SWAP1 POP SWAP2 SWAP1 POP JUMP JUMPDEST PUSH1 0x0 PUSH1 0x20 DUP3 ADD SWAP1 POP DUP2 DUP2 SUB PUSH1 0x0 DUP4 ADD MSTORE PUSH2 0x661 DUP2 PUSH2 0x625 JUMP JUMPDEST SWAP1 POP SWAP2 SWAP1 POP JUMP JUMPDEST PUSH1 0x0 DUP2 PUSH1 0x60 SHL SWAP1 POP SWAP2 SWAP1 POP JUMP JUMPDEST PUSH1 0x0 PUSH2 0x680 DUP3 PUSH2 0x668 JUMP JUMPDEST SWAP1 POP SWAP2 SWAP1 POP JUMP JUMPDEST PUSH1 0x0 PUSH2 0x692 DUP3 PUSH2 0x675 JUMP JUMPDEST SWAP1 POP SWAP2 SWAP1 POP JUMP JUMPDEST PUSH2 0x6AA PUSH2 0x6A5 DUP3 PUSH2 0x420 JUMP JUMPDEST PUSH2 0x687 JUMP JUMPDEST DUP3 MSTORE POP POP JUMP JUMPDEST PUSH1 0x0 DUP2 SWAP1 POP SWAP2 SWAP1 POP JUMP JUMPDEST PUSH2 0x6CB PUSH2 0x6C6 DUP3 PUSH2 0x373 JUMP JUMPDEST PUSH2 0x6B0 JUMP JUMPDEST DUP3 MSTORE POP POP JUMP JUMPDEST PUSH1 0x0 PUSH2 0x6DD DUP3 DUP7 PUSH2 0x699 JUMP JUMPDEST PUSH1 0x14 DUP3 ADD SWAP2 POP PUSH2 0x6ED DUP3 DUP6 PUSH2 0x6BA JUMP JUMPDEST PUSH1 0x20 DUP3 ADD SWAP2 POP PUSH2 0x6FD DUP3 DUP5 PUSH2 0x6BA JUMP JUMPDEST PUSH1 0x20 DUP3 ADD SWAP2 POP DUP2 SWAP1 POP SWAP5 SWAP4 POP POP POP POP JUMP JUMPDEST PUSH32 0x4E487B7100000000000000000000000000000000000000000000000000000000 PUSH1 0x0 MSTORE PUSH1 0x12 PUSH1 0x4 MSTORE PUSH1 0x24 PUSH1 0x0 REVERT JUMPDEST PUSH1 0x0 PUSH2 0x748 DUP3 PUSH2 0x373 JUMP JUMPDEST SWAP2 POP PUSH2 0x753 DUP4 PUSH2 0x373 JUMP JUMPDEST SWAP3 POP DUP3 PUSH2 0x763 JUMPI PUSH2 0x762 PUSH2 0x70E JUMP JUMPDEST JUMPDEST DUP3 DUP3 MOD SWAP1 POP SWAP3 SWAP2 POP POP JUMP INVALID LOG2 PUSH5 0x6970667358 0x22 SLT KECCAK256 0x2E DUP10 0xF6 DUP8 SHR 0xD5 0xAB 0xBB PUSH10 0x8325F6A955DACDA8D294 0xEB SWAP7 PUSH3 0x78F53 0xCE SWAP16 JUMP PUSH24 0x72E9C864736F6C6343000818003300000000000000000000 "
        },
        "methodIdentifiers": {
          "i_owner()": "dba6335f",
          "play(uint256)": "6898f82b",
          "withdraw()": "3ccfd60b"
        }
      }
    }
  }
}