{
  "_format": "hh-sol-artifact-1",
  "contractName": "Coinflip",
  "sourceName": "contracts/Coinflip.sol",
  "abi": [
    {
      "inputs": [],
      "stateMutability": "nonpayable",
      "type": "constructor"
    },
    {
      "stateMutability": "payable",
      "type": "fallback"
    },
    {
      "inputs": [],
      "name": "getResult",
      "outputs": [
        {
          "internalType": "bool",
          "name": "",
          "type": "bool"
        }
      ],
      "stateMutability": "view",
      "type": "function"
    },
    {
      "inputs": [],
      "name": "i_owner",
      "outputs": [
        {
          "internalType": "address",
          "name": "",
          "type": "address"
        }
      ],
      "stateMutability": "view",
      "type": "function"
    },
    {
      "inputs": [
        {
          "internalType": "uint256",
          "name": "guess",
          "type": "uint256"
        }
      ],
      "name": "play",
      "outputs": [],
      "stateMutability": "payable",
      "type": "function"
    },
    {
      "inputs": [],
      "name": "withdraw",
      "outputs": [],
      "stateMutability": "payable",
      "type": "function"
    },
    {
      "stateMutability": "payable",
      "type": "receive"
    }
  ],
  "bytecode": "0x60a060405234801561001057600080fd5b503373ffffffffffffffffffffffffffffffffffffffff1660808173ffffffffffffffffffffffffffffffffffffffff168152505060805161080461006d6000396000818160ca0152818161015a015261038a01526108046000f3fe6080604052600436106100435760003560e01c80633ccfd60b1461004c5780636898f82b14610056578063dba6335f14610072578063de2927891461009d5761004a565b3661004a57005b005b6100546100c8565b005b610070600480360381019061006b91906103fd565b610225565b005b34801561007e57600080fd5b50610087610388565b604051610094919061046b565b60405180910390f35b3480156100a957600080fd5b506100b26103ac565b6040516100bf91906104a1565b60405180910390f35b7f000000000000000000000000000000000000000000000000000000000000000073ffffffffffffffffffffffffffffffffffffffff163373ffffffffffffffffffffffffffffffffffffffff1614610156576040517f08c379a000000000000000000000000000000000000000000000000000000000815260040161014d90610519565b60405180910390fd5b60007f000000000000000000000000000000000000000000000000000000000000000073ffffffffffffffffffffffffffffffffffffffff164760405161019c9061056a565b60006040518083038185875af1925050503d80600081146101d9576040519150601f19603f3d011682016040523d82523d6000602084013e6101de565b606091505b5050905080610222576040517f08c379a0000000000000000000000000000000000000000000000000000000008152600401610219906105cb565b60405180910390fd5b50565b476002610232919061061a565b3410610273576040517f08c379a000000000000000000000000000000000000000000000000000000000815260040161026a906106a8565b60405180910390fd5b600033428260405160200161028a93929190610731565b6040516020818303038152906040528051906020012060001c9050600a816102b2919061079d565b90506002816102c1919061079d565b90508082036103695760003373ffffffffffffffffffffffffffffffffffffffff166002346102f0919061061a565b6040516102fc9061056a565b60006040518083038185875af1925050503d8060008114610339576040519150601f19603f3d011682016040523d82523d6000602084013e61033e565b606091505b5050905080156103635760016000806101000a81548160ff0219169083151502179055505b50610384565b60008060006101000a81548160ff0219169083151502179055505b5050565b7f000000000000000000000000000000000000000000000000000000000000000081565b60008060009054906101000a900460ff16905090565b600080fd5b6000819050919050565b6103da816103c7565b81146103e557600080fd5b50565b6000813590506103f7816103d1565b92915050565b600060208284031215610413576104126103c2565b5b6000610421848285016103e8565b91505092915050565b600073ffffffffffffffffffffffffffffffffffffffff82169050919050565b60006104558261042a565b9050919050565b6104658161044a565b82525050565b6000602082019050610480600083018461045c565b92915050565b60008115159050919050565b61049b81610486565b82525050565b60006020820190506104b66000830184610492565b92915050565b600082825260208201905092915050565b7f4f6e6c792061646d696e2063616e207769746864726177000000000000000000600082015250565b60006105036017836104bc565b915061050e826104cd565b602082019050919050565b60006020820190508181036000830152610532816104f6565b9050919050565b600081905092915050565b50565b6000610554600083610539565b915061055f82610544565b600082019050919050565b600061057582610547565b9150819050919050565b7f43616c6c206661696c6564000000000000000000000000000000000000000000600082015250565b60006105b5600b836104bc565b91506105c08261057f565b602082019050919050565b600060208201905081810360008301526105e4816105a8565b9050919050565b7f4e487b7100000000000000000000000000000000000000000000000000000000600052601160045260246000fd5b6000610625826103c7565b9150610630836103c7565b925082820261063e816103c7565b91508282048414831517610655576106546105eb565b5b5092915050565b7f506c65617365206265742061206c6f7765722076616c75650000000000000000600082015250565b60006106926018836104bc565b915061069d8261065c565b602082019050919050565b600060208201905081810360008301526106c181610685565b9050919050565b60008160601b9050919050565b60006106e0826106c8565b9050919050565b60006106f2826106d5565b9050919050565b61070a6107058261044a565b6106e7565b82525050565b6000819050919050565b61072b610726826103c7565b610710565b82525050565b600061073d82866106f9565b60148201915061074d828561071a565b60208201915061075d828461071a565b602082019150819050949350505050565b7f4e487b7100000000000000000000000000000000000000000000000000000000600052601260045260246000fd5b60006107a8826103c7565b91506107b3836103c7565b9250826107c3576107c261076e565b5b82820690509291505056fea2646970667358221220623ff83e252f98862a2e4ad2e553dee0b53d1a7d6af49a374e7f527b2c895a0664736f6c63430008180033",
  "linkReferences": {},
  "deployedLinkReferences": {}
}