{
  "_format": "hh-sol-artifact-1",
  "contractName": "Coinflip",
  "sourceName": "contracts/Coinflip.sol",
  "abi": [
    {
      "inputs": [],
      "stateMutability": "nonpayable",
      "type": "constructor"
    },
    {
      "stateMutability": "payable",
      "type": "fallback"
    },
    {
      "inputs": [],
      "name": "i_owner",
      "outputs": [
        {
          "internalType": "address",
          "name": "",
          "type": "address"
        }
      ],
      "stateMutability": "view",
      "type": "function"
    },
    {
      "inputs": [
        {
          "internalType": "uint256",
          "name": "guess",
          "type": "uint256"
        }
      ],
      "name": "play",
      "outputs": [
        {
          "internalType": "uint256",
          "name": "",
          "type": "uint256"
        }
      ],
      "stateMutability": "payable",
      "type": "function"
    },
    {
      "inputs": [],
      "name": "withdraw",
      "outputs": [],
      "stateMutability": "payable",
      "type": "function"
    },
    {
      "stateMutability": "payable",
      "type": "receive"
    }
  ],
  "bytecode": "0x60a060405234801561001057600080fd5b503373ffffffffffffffffffffffffffffffffffffffff1660808173ffffffffffffffffffffffffffffffffffffffff16815250506080516107a461006d6000396000818160a801528181610138015261034c01526107a46000f3fe6080604052600436106100385760003560e01c80633ccfd60b146100415780636898f82b1461004b578063dba6335f1461007b5761003f565b3661003f57005b005b6100496100a6565b005b610065600480360381019061006091906103a9565b610203565b60405161007291906103e5565b60405180910390f35b34801561008757600080fd5b5061009061034a565b60405161009d9190610441565b60405180910390f35b7f000000000000000000000000000000000000000000000000000000000000000073ffffffffffffffffffffffffffffffffffffffff163373ffffffffffffffffffffffffffffffffffffffff1614610134576040517f08c379a000000000000000000000000000000000000000000000000000000000815260040161012b906104b9565b60405180910390fd5b60007f000000000000000000000000000000000000000000000000000000000000000073ffffffffffffffffffffffffffffffffffffffff164760405161017a9061050a565b60006040518083038185875af1925050503d80600081146101b7576040519150601f19603f3d011682016040523d82523d6000602084013e6101bc565b606091505b5050905080610200576040517f08c379a00000000000000000000000000000000000000000000000000000000081526004016101f79061056b565b60405180910390fd5b50565b600047600261021291906105ba565b3410610253576040517f08c379a000000000000000000000000000000000000000000000000000000000815260040161024a90610648565b60405180910390fd5b600033428260405160200161026a939291906106d1565b6040516020818303038152906040528051906020012060001c9050600a81610292919061073d565b90506002816102a1919061073d565b90508083036103395760003373ffffffffffffffffffffffffffffffffffffffff166002346102d091906105ba565b6040516102dc9061050a565b60006040518083038185875af1925050503d8060008114610319576040519150601f19603f3d011682016040523d82523d6000602084013e61031e565b606091505b50509050801561033357600192505050610345565b50610343565b6000915050610345565b505b919050565b7f000000000000000000000000000000000000000000000000000000000000000081565b600080fd5b6000819050919050565b61038681610373565b811461039157600080fd5b50565b6000813590506103a38161037d565b92915050565b6000602082840312156103bf576103be61036e565b5b60006103cd84828501610394565b91505092915050565b6103df81610373565b82525050565b60006020820190506103fa60008301846103d6565b92915050565b600073ffffffffffffffffffffffffffffffffffffffff82169050919050565b600061042b82610400565b9050919050565b61043b81610420565b82525050565b60006020820190506104566000830184610432565b92915050565b600082825260208201905092915050565b7f4f6e6c792061646d696e2063616e207769746864726177000000000000000000600082015250565b60006104a360178361045c565b91506104ae8261046d565b602082019050919050565b600060208201905081810360008301526104d281610496565b9050919050565b600081905092915050565b50565b60006104f46000836104d9565b91506104ff826104e4565b600082019050919050565b6000610515826104e7565b9150819050919050565b7f43616c6c206661696c6564000000000000000000000000000000000000000000600082015250565b6000610555600b8361045c565b91506105608261051f565b602082019050919050565b6000602082019050818103600083015261058481610548565b9050919050565b7f4e487b7100000000000000000000000000000000000000000000000000000000600052601160045260246000fd5b60006105c582610373565b91506105d083610373565b92508282026105de81610373565b915082820484148315176105f5576105f461058b565b5b5092915050565b7f506c65617365206265742061206c6f7765722076616c75650000000000000000600082015250565b600061063260188361045c565b915061063d826105fc565b602082019050919050565b6000602082019050818103600083015261066181610625565b9050919050565b60008160601b9050919050565b600061068082610668565b9050919050565b600061069282610675565b9050919050565b6106aa6106a582610420565b610687565b82525050565b6000819050919050565b6106cb6106c682610373565b6106b0565b82525050565b60006106dd8286610699565b6014820191506106ed82856106ba565b6020820191506106fd82846106ba565b602082019150819050949350505050565b7f4e487b7100000000000000000000000000000000000000000000000000000000600052601260045260246000fd5b600061074882610373565b915061075383610373565b9250826107635761076261070e565b5b82820690509291505056fea26469706673582212202e89f6871cd5abbb698325f6a955dacda8d294eb9662078f53ce9f567772e9c864736f6c63430008180033",
  "linkReferences": {},
  "deployedLinkReferences": {}
}